:100000000C9440040C94E6110C945D040C945D0473
:100010000C945D040C945D040C945D040C945D04DC
:100020000C945D040C945D040C945D040C945D04CC
:100030000C945D040C945D040C945D040C945D04BC
:100040000C945D040C945D040C945D040C945D04AC
:100050000C945D0458055C05600564056D05680534
:10006000770505A84CCDB2D44EB93836A9020C504C
:10007000B9918688083CA6AAAA2ABE000000803F43
:100080000000000000000000000000000000000070
:10009000000000000000000F080808080808080019
:1000A00000000000000000F8080808080808080020
:1000B000080808080808080F0000000000000000F9
:1000C00008080808080808F8000000000000000000
:1000D00008080808080808080808080808080800A8
:1000E00000000000000000FF000000000000000011
:1000F000000000183C7E7E7E3C18000000000000DE
:10010000FFFFFFE7C3818181C3E7FFFFFFFFFF0020
:1001100000000000000000000000000000000000DF
:1001200000000000000000000000000000000000CF
:10013000001F050509091010384444443800000028
:10014000001C2222221C08087F0808080800000062
:10015000000000000000000000000000000000009F
:10016000031D11131D1111111317367060000000CB
:1001700008085D222222632222225D080800000076
:1001800008080808080808FF080808080808080000
:10019000000103070F1F3F7F3F1F0F0703010000F0
:1001A000081C2A08080808080808082A1C08000073
:1001B00000242424242424242424000024240000B3
:1001C000001F25454545251D0505050505000000C1
:1001D00008080808080808FF0000000000000000E8
:1001E00000000000000000FF0808080808080800D8
:1001F00008080808080808F8080808080808080097
:10020000081C2A0808080808080808080808000048
:10021000080808080808080F08080808080808005F
:10022000000000000004027F020400000000000043
:10023000000000000010207F2010000000000000DF
:1002400000000000000000000000000000000000AE
:10025000000000000000000000000000000000009E
:10026000000000000000000000000000000000008E
:10027000000000000000000000000000000000007E
:10028000000000000000000000000000000000006E
:1002900000001010101010101000001818000000BE
:1002A000123624480000000000000000000000009A
:1002B0000000242424FE484848FE48484800000026
:1002C000001038545450301814145454381010007E
:1002D000000044A4A8A8A8541A2A2A2A440000000E
:1002E000000030484848506EA49488897600000089
:1002F000606020C00000000000000000000000005E
:100300000204080810101010101008080402000061
:1003100040201010080808080808101020400000AD
:100320000000001010D63838D61010000000000071
:1003300000000010101010FE10101010000000003F
:100340000000000000000000000000606020C0000D
:10035000000000000000007F00000000000000001E
:1003600000000000000000000000006060000000CD
:100370000001020204040808101020204040000080
:100380000000182442424242424242241800000027
:100390000000107010101010101010107C000000E1
:1003A00000003C4242420404081020427E0000004B
:1003B00000003C424204180402024244380000009B
:1003C0000000040C14242444447E04041E00000095
:1003D00000007E4040405864020242443800000061
:1003E00000001C244040586442424224180000008F
:1003F00000007E4444080810101010101000000087
:1004000000003C4242422418244242423C00000088
:1004100000001824424242261A020224380000003A
:10042000000000000018180000000018180000006C
:10043000000000000000100000000000101020006C
:1004400000000204081020402010080402000000F0
:100450000000000000FE000000FE000000000000A0
:100460000000402010080402040810204000000092
:1004700000003C4242620204080800181800000014
:10048000000038445AAAAAAAAAB44244380000007C
:1004900000001010182828243C444242E7000000C5
:1004A0000000F8444444784442424244F8000000CA
:1004B00000003E424280808080804244380000003C
:1004C0000000F8444242424242424244F8000000E6
:1004D0000000FC424848784848404242FC00000086
:1004E0000000FC424848784848404040E000000096
:1004F00000003C44448080808E84444438000000E6
:100500000000E7424242427E42424242E70000008F
:1005100000007C1010101010101010107C00000053
:1005200000003E0808080808080808080888F000C5
:100530000000EE444850705048484444EE0000002B
:100540000000E0404040404040404042FE0000008B
:100550000000EE6C6C6C6C5454545454D600000083
:100560000000C7626252524A4A4A4646E200000010
:1005700000003844828282828282824438000000F5
:100580000000FC424242427C40404040E00000000B
:10059000000038448282828282B2CA4C380600004F
:1005A0000000FC4242427C4848444442E3000000D0
:1005B00000003E4242402018040242427C000000FB
:1005C0000000FE92101010101010101038000000E3
:1005D0000000E74242424242424242423C000000A6
:1005E0000000E7424244242428281810100000008C
:1005F0000000D692929292AAAA6C44444400000051
:100600000000E7422424181818242442E7000000C0
:100610000000EE444428281010101010380000008C
:1006200000007E840408081020204242FC000000E4
:100630001E1010101010101010101010101E0000BE
:10064000004040202010101008080404040202009A
:10065000780808080808080808080808087800004A
:100660001C2200000000000000000000000000004C
:100670000000000000000000000000000000FF007B
:1006800060100000000000000000000000000000FA
:100690000000000000003C421E2242423F000000D9
:1006A0000000C0404040586442424264580000008C
:1006B0000000000000001C22404040221C000000FE
:1006C0000000060202021E22424242261B000000D7
:1006D0000000000000003C427E4040423C00000020
:1006E00000000F1110107E10101010107C00000080
:1006F0000000000000003E444438403C42423C00C0
:100700000000C04040405C6242424242E7000000BC
:100710000000303000007010101010107C0000003D
:1007200000000C0C00001C040404040404447800C1
:100730000000C04040404E4850684844EE00000071
:100740000000701010101010101010107C0000002D
:10075000000000000000FE4949494949ED00000041
:10076000000000000000DC6242424242E70000005C
:100770000000000000003C42424242423C000000B7
:10078000000000000000D864424242447840E0008B
:100790000000000000001E22424242221E0207000A
:1007A000000000000000EE3220202020F8000000B1
:1007B0000000000000003E42403C02427C0000007D
:1007C0000000000010107C10101010100C00000031
:1007D000000000000000C642424242463B000000CA
:1007E000000000000000E742242428101000000050
:1007F000000000000000D79292AAAA444400000022
:100800000000000000006E24181818247600000074
:10081000000000000000E742242428181010E00027
:100820000000000000007E44081010227E0000003E
:10083000030404040404080404040404040300007E
:100840000808080808080808080808080808080030
:100850006010101010100810101010101060000020
:100860004C430000000000000000000000000000F9
:100870000000000000000000000000000000000078
:1008800011241FBECFE5D4E0DEBFCDBF10E0A0E64F
:10089000B0E0E4E0F5E302C005900D92A43FB1079B
:1008A000D9F721E0A4EFB0E001C01D92AD31B2074D
:1008B000E1F70E945C140C94801A0C940000FC0177
:1008C0000FB6F8946091190170911A0180911B0183
:1008D00090911C010FBE309721F060837183828359
:1008E000938308950F931F93CF93DF93EC016817C1
:1008F000790720F08B01081B190B04C08C01061B23
:10090000170BEB010115110541F00E943F19B801C9
:100910000E9493148C0F9D1F01C0CE01DF91CF91D7
:100920001F910F910895FC0120813181FB014081CD
:100930005181FC0151834083FB0131832083089561
:10094000CF92DF92EF92FF926C01FB0161E070E0C9
:1009500080E090E0E12CF12C319738F09B01AC0164
:10096000C701B6010E947714F7CFFF90EF90DF9098
:10097000CF900895AF92BF92CF92EF92FF920F93D4
:10098000CF93DF931092F400C1E0D1E08881998188
:100990000E945B0B8993999381E0C531D807B1F729
:1009A00080E394E80E942A0C88E2A82EB12C90EFF4
:1009B000C92EE12CF12C00E02FEC31E04FEF5FEF7E
:1009C00061E08AE790E00E941E0B90930E018093F5
:1009D0000D01DC011D96ED91FC911E97099528E112
:1009E000E22EFF24F39420E038EF4FEF5FEF61E059
:1009F00080E890E00E941E0B9093100180930F01FD
:100A0000DC011D96ED91FC911E97DF91CF910F9126
:100A1000FF90EF90CF90BF90AF900994AF92BF92AC
:100A2000CF92EF92FF920F93CF93DF931092F40047
:100A3000C1E0D1E0888199810E945B0B89939993F1
:100A400081E0C531D807B1F780E394E80E942A0C11
:100A500088E2A82EB12C90EFC92E28E1E22EFF24C7
:100A6000F39400E02FEC31E04FEF5FEF6AE085E8B0
:100A700090E00E941E0B9093040180930301DC011F
:100A80001D96ED91FC911E97DF91CF910F91FF90F4
:100A9000EF90CF90BF90AF9009940F931F9390E089
:100AA0008730910540F5FC01E65DFF4F0C94C914B9
:100AB0001F910F910C940E051F910F910C942D0610
:100AC0001F910F910C94C3051F910F910C94BA04C0
:100AD0000E94F20642E065E004C00E948F0A42E0F4
:100AE00064E08AE890E01F910F910C94890F1F91A8
:100AF0000F910C94FA130EE610E026E440E354E85C
:100B000060E078EF83EA90E00E94F60B1F910F916E
:100B10000895EF92FF921F93CF93DF93F8940E9472
:100B2000621391E0E92E91E0F92EC0E0D0E01C2F95
:100B3000F701819191917F010E94600B8823C1F0A0
:100B40001750133040F4CC0FDD1FCF5FDE4FE8812C
:100B5000F981848501C08C2F0E944D058FEF809311
:100B6000F5008FEF9FEF9093F7008093F60004C09D
:100B70002196CA30D105D9F67894DF91CF911F9193
:100B8000FF90EF900895AF92BF92CF92EF92FF92B5
:100B90000F93CF93DF931092F400C1E0D1E08881EE
:100BA00099810E945B0B8993999381E0C531D807A5
:100BB000B1F780E394E80E942A0C88E2A82EB12CB9
:100BC00090EFC92EE12CF12C00E02FEC31E04FEF3B
:100BD0005FEF61E083EB90E00E941E0B90930A01AF
:100BE00080930901DC011D96ED91FC911E970995FA
:100BF00028E2E22EF12C2AEC31E04FEF5FEF61E0CA
:100C00008DEB90E00E941E0B90930C0180930B01E2
:100C1000DC011D96ED91FC911E97099538E1E32EBC
:100C2000FF24F39420E038EF4FEF5FEF61E080E8BE
:100C300090E00E941E0B9093100180930F01DC0145
:100C40001D96ED91FC911E97DF91CF910F91FF9032
:100C5000EF90CF90BF90AF900994AF92BF92CF9298
:100C6000EF92FF920F93CF93DF931092F400C1E0C5
:100C7000D1E0888199810E945B0B8993999381E0EF
:100C8000C531D807B1F780E394E80E942A0C88E2C6
:100C9000A82EB12C90EFC92EE12CF12C00E02FEC06
:100CA00031E04FEF5FEF60E083EC90E00E941E0BBD
:100CB0009093060180930501DC011D96ED91FC9156
:100CC0001E97099528E2E22EF12C2AEC31E04FEF35
:100CD0005FEF60E089EC90E00E941E0B90930801AA
:100CE00080930701DC011D96ED91FC911E970995FB
:100CF00038E1E32EFF24F39420E038EF4FEF5FEF6D
:100D000060E080E890E00E941E0B909310018093B9
:100D10000F01DC011D96ED91FC911E97DF91CF91A3
:100D20000F91FF90EF90CF90BF90AF9009940F93E9
:100D30001F9380E090E00E942A0C0CE810E028E568
:100D400040E050E06FEF7FEF85ED90E00E94F60B02
:100D50002FEF87EA91E6215080409040E1F700C0F4
:100D600000001F910F910895AF92BF92CF92DF9232
:100D7000EF920F931F93CF93DF93EC015B016A0116
:100D800080E090E00E945F04CB010E94441982E061
:100D900090E10E942A0C10E06BEB7BEB84E494E47E
:100DA0000E94720422E0E22E012F26E0AC01B50180
:100DB000CE010E94AB07EC011F5F133069F7F6010B
:100DC00014821582A601F50160810E946B07CE0195
:100DD000DF91CF911F910F91EF90DF90CF90BF9057
:100DE000AF9008950F931F93CF93DF93CDB7DEB7E6
:100DF00027970FB6F894DEBF0FBECDBF1F82AE019E
:100E00004F5F5F4FBE01695F7F4F80E090E00E94BF
:100E1000B4068C01BE01695F7F4FC8010E94B6080D
:100E2000AE014F5F5F4FBE01695F7F4F0E940709B0
:100E3000AE014F5F5F4FBE01695F7F4F0E9498090F
:100E4000BE01695F7F4F0E946A098C016F8170E06B
:100E500040E050E00E946E088823E1F22FEF83EC1F
:100E600099E0215080409040E1F700C00000BE01B1
:100E7000695F7F4FC8010E94430827960FB6F89418
:100E8000DEBF0FBECDBFDF91CF911F910F910895AF
:100E90000F931F93FC014181908184E1489FA00141
:100EA0001124662351F064E1969F602D112404E122
:100EB00010E024E182E090E109C064E1969F602D9A
:100EC000112404E110E024E1828193810E94770CD7
:100ED0001F910F910895EF92FF920F931F93CF935D
:100EE000DF93F82EE92E062FEA016BEB7BEB84E40F
:100EF00094E40E9472049B838A8311E06BE070E0AB
:100F000080E090E00E94720488836FE070E080E0EF
:100F100090E00E9472048983EF2DFE2D20E02017BF
:100F200071F0A191B1913C919881391306C011964D
:100F30009C91981302C010E0E1CF2F5FF0CF1123F6
:100F4000E9F260E0CE01DF91CF911F910F91FF9008
:100F5000EF900C944807AF92BF92CF92DF92EF923E
:100F6000FF920F931F93CF93DF93D82FC92F6B015D
:100F70005A01122FFB012081822F64E60E94871400
:100F800091110CC0622F70E06C597F4F660F771F74
:100F90008D2F9C2F0E944F19D82FC92FF601F0805A
:100FA000F394F08286E090E00E94C6172D2F3C2F2C
:100FB0002F0D311D2F0D311DF90132979183808343
:100FC000F60120818D2F9C2F820F911D820F911D84
:100FD000FC0132970190F081E02DB382A282F601EC
:100FE00020818D2F9C2F820F911D820F911DFC015E
:100FF00032970190F081E02D1083F60120818D2F32
:101000009C2F820F911D820F911DFC013297019040
:10101000F081E02D0183F60120818D2F9C2F820F1E
:10102000911D820F911DFC0132970190F081E02DFE
:10103000E482F60120818D2F9C2F820F911D820F5B
:10104000911DFC0132970190F081E02DE582F601BF
:1010500020818D2F9C2F820F911D820F911DFC01ED
:10106000329760E0808191810E9448078D2F9C2FEC
:10107000DF91CF911F910F91FF90EF90DF90CF9074
:10108000BF90AF900895CF92DF92EF92FF920F93AF
:101090001F93CF93DF938C016B01C82FD12FE12CCD
:1010A000F12CF601808190E0E816F90644F489916C
:1010B00099910E945B18FFEFEF1AFF0AF2CFC80167
:1010C0000E945B18F6011082C801DF91CF911F9139
:1010D0000F91FF90EF90DF90CF900895CF93DF9323
:1010E0006430F0F170E0442381F0FB01E150F048FE
:1010F000EE0FFF1FE80FF91F0190F081E02D208116
:101100002C3080F52181203168F59B012450310974
:10111000FB01E150F048EE0FFF1FE80FF91FA0811F
:10112000B181CC91660F771F40E050E0FA01E60FE5
:10113000F71F3897E80FF91F0190F081E02DD0815B
:10114000DC1306C0F1811196EC911197FE1751F056
:1011500021503109425051092F3FEFEF3E0731F73F
:1011600080E001C08FEFDF91CF910895FF920F9340
:101170001F93CF93DF931F92CDB7DEB7F82E8B016D
:1011800099830E943010282F99818230C1F018F481
:101190008130A9F034C0833011F0843081F5F8013A
:1011A00080814F2D592F480F511D480F511DFA01B5
:1011B00032970190F081E02D848183500FC0F801B7
:1011C00080814F2D592F480F511D480F511DFA0195
:1011D00032970190F081E02D84818150823078F047
:1011E0002583F80180814F2D592F480F511D480F3D
:1011F000511DFA0132970190F081E02D24838F2D4B
:101200000F90DF91CF911F910F91FF900895AF92B2
:10121000BF92CF92DF92EF920F93CF93DF93D82FAD
:10122000C92F5B016A01DB012C91820F911D820F96
:10123000911DFC0132970190F081E02D2081DA01AF
:101240008C9128133CC0018111968C91081337C0F2
:1012500084818230F1F048F4813051F50150FA0177
:1012600042815381EE24E3941CC0833059F08430D2
:10127000F9F42F5FDA0112964D915C91139794E087
:10128000E92E0FC02150FA014281538133E0E32E51
:1012900008C00F5FDA0112964D915C91139782E0BE
:1012A000E82EB5018D2F9C2F0E94AB07D82FC92F98
:1012B000A601F50160818D2F9C2F0E946B078D2F59
:1012C0009C2FDF91CF910F91EF90DF90CF90BF9047
:1012D000AF900895CF93DF93FB01208130E0A90107
:1012E00042505109220F331FFC01E20FF31F662702
:1012F0007727621B730B2450310957FD16C0DF019D
:10130000A60FB71FA20FB31F0D90BC91A02D14966E
:10131000CC9114971596CC931597D291C291CD810B
:101320001496CC9341505109E8CFDF91CF910895A5
:101330006F927F928F929F92AF92BF92CF92DF92E5
:10134000EF92FF920F931F93CF93DF936C012FEFD8
:1013500083EC99E0215080409040E1F700C000000C
:10136000DB01CC91D0E04E01880C991C7601E80C91
:10137000F91CAA24BB24A818B9089BE0792E2FE0F9
:10138000622E209709F442C0B2E0EB1AF108850101
:101390000E0D1F1D080D191D61E0F801808191815E
:1013A0000E944807D801ED91FC9184818230F9F0C8
:1013B00018F48130A9F022C0833019F0843041F054
:1013C0001DC08081811102C0708218C0815006C08A
:1013D00080818B3010F0108211C08F5F80830EC02F
:1013E0008181811102C0618209C0815006C0818162
:1013F0008F3010F0118202C08F5F818360E0F801AE
:10140000808191810E9448072197BBCFC601DF915F
:10141000CF911F910F91FF90EF90DF90CF90BF90F1
:10142000AF909F908F907F906F9008950F931F9330
:10143000CF93DF93EC01DB01F901888181508C3D72
:1014400018F08081819580838D919C9111970097F0
:1014500099F044968D32914090F0888190E0242F4D
:1014600030E0BC01675F7F4F6217730744F02F5C69
:101470003F4F281739071CF08181819581832D9179
:101480003C91119798812D323140E0F0292F30E0C6
:1014900050E0B901675F7F4F641775072CF04F5C10
:1014A0005F4F4217530774F404E610E02AE030E07F
:1014B00040E050E06FE170E08EED90E00E94F60BAE
:1014C00081E00EC08081890F888321818D919C915C
:1014D0001197820F911D27FD9A958D939C9380E023
:1014E000DF91CF911F910F910895CF93DF93EC017E
:1014F00089E20E941110863F2CF48881882361F0D4
:10150000825009C08B3044F08881282F30E0243B82
:10151000310514F48E5F8883DF91CF9108950F9386
:101520001F93CF93DF9300D000D000D0CDB7DEB7AC
:101530008EE68E838AE58D8386E990E09A8389839F
:1015400081E08B838C8380E090E00E942A0C05E090
:1015500010E02CE34CE251E06D8180E090E00E94CD
:10156000770CCE0105960E94750A2CE34CE251E0FF
:101570006D8180E098EF0E94770C49815A8104E1E7
:1015800010E024E16E8180E090E00E94770C9E01E3
:101590002D5F3F4F4D81BE016F5F7F4FCE0106969D
:1015A0000E94160A811109C049815A8124E16E8185
:1015B00080EE97E00E94770CCACF26960FB6F8947B
:1015C000DEBF0FBECDBFDF91CF911F910F91089568
:1015D0000F931F93CF93DF93EC010A851B854F81F7
:1015E000588529856E818C819D810E94770CA88108
:1015F000B981FD0101900020E9F73197EA1BFB0B4F
:101600000F811885085011092A853B853695279545
:10161000020F131F298526959E81290F84E0E89FDC
:10162000201911244C815D816A817B81CD010E944A
:10163000F60BDF91CF911F910F9108954F925F921A
:101640006F927F928F929F92AF92BF92CF92EF92C2
:10165000FF920F93CF93DF931F92CDB7DEB74C016C
:101660002A0139018FE090E069830E94C617FC01CE
:10167000918280820683F086E782C186B386A28645
:1016800075826482538242826981648788EE9AE01F
:1016900096878587CF010F90DF91CF910F91FF90B3
:1016A000EF90CF90BF90AF909F908F907F906F9072
:1016B0005F904F9008950E945B1880E090E008953D
:1016C000FC012091F50024516091F6007091F70023
:1016D00086812817C0F030E0418550E0480F511D49
:1016E0004217530784F09B012250310947815085EE
:1016F0002417350740F082859385480F591F81E0F4
:101700004217530708F480E008959F92AF92BF926A
:10171000CF92DF92EF92FF920F931F93CF93DF93BD
:10172000B82E7B016A01C22F60E372E183E090E092
:101730000E945B10D0E0BE0180E192E00E945B104D
:10174000B80182E192E00E945B10BE01695F7F4FA9
:1017500081E192E00E945B10B801615F7F4F83E1FD
:1017600092E00E945B10BE0180E092E00E945B105C
:10177000B80181E092E00E945B1082E092E00E945A
:101780004D10C298C19A80E1B89E80011124A12C0D
:10179000B12CF501E00FF11FE058FF4FC491D8E0E4
:1017A00080E8982E892D8C2311F0C70101C0C60155
:1017B0000E947C109694D150A9F78FEFA81AB80A0E
:1017C00080E1A816B10429F7C29A60E370E183E0D2
:1017D00090E0DF91CF911F910F91FF90EF90DF90FC
:1017E000CF90BF90AF909F900C945B108F929F9280
:1017F000AF92BF92CF92DF92EF92FF920F931F931F
:10180000CF935B014A01C22F78016C01F6018191EF
:101810006F01882399F095E2E91691E0F90670F4DA
:10182000CF3D20F0E0E1EE0EF11CC0E087012C2F4F
:10183000A401B5010E94850BC85FE8CFCF911F912D
:101840000F91FF90EF90DF90CF90BF90AF909F905F
:101850008F900895EF92FF920F931F93CF937C0187
:1018600060E372E183E090E00E945B1060E070E072
:1018700080E192E00E945B1060E070E082E192E023
:101880000E945B106FEE70E081E192E00E945B10BD
:101890006FE371E083E192E00E945B1060E070E032
:1018A00080E092E00E945B1060E070E081E092E0F6
:1018B0000E945B1082E092E00E944D10C298C19A93
:1018C00000E411E0C0EFC7010E947C10C150D9F7BD
:1018D00001501109B9F7C29A60E370E183E090E02A
:1018E000CF911F910F91FF90EF900C945B109F92FE
:1018F000AF92BF92CF92DF92EF92FF920F931F931E
:10190000CF93DF935C017A01922E6801C62FD0E05D
:10191000BE0180E192E00E945B10B70182E192E09B
:101920000E945B10BE01690D711D6150710981E15A
:1019300092E00E945B10B801615071096E0D7F1D2D
:1019400083E192E00E945B10BE0180E092E00E9481
:101950005B10B70181E092E00E945B10C19882E0C9
:1019600092E00E944D10C298C0E0D0E0CC15DD0599
:1019700051F010E0191529F0C5010E947C101F5F7D
:10198000F9CF2196F3CFC29ADF91CF911F910F919A
:10199000FF90EF90DF90CF90BF90AF909F90089511
:1019A000CF93DF93613F710570F4EB01682F70E016
:1019B00080E092E00E945B10BE0181E092E0DF9146
:1019C000CF910C945B10DF91CF910895EF92FF922D
:1019D0000F931F93CF93DF937C01C62F8A0160E39F
:1019E00072E183E090E00E945B10D0E0BE0180E1F4
:1019F00092E00E945B10B80182E192E00E945B10CD
:101A0000BE0181E192E00E945B10B80183E192E0A7
:101A10000E945B10BE0180E092E00E945B10B80162
:101A200081E092E00E945B1082E092E00E944D1003
:101A3000C298C19AC7010E947C10C29A60E370E10B
:101A400083E090E0DF91CF911F910F91FF90EF9095
:101A50000C945B10EF92FF920F931F93CF93DF9341
:101A60007C01C62F8A0160E372E183E090E00E946E
:101A70005B10D0E0BE016150710980E192E00E94EC
:101A80005B10B8016150710982E192E00E945B1025
:101A9000BE016F5F7F4F81E192E00E945B10B80151
:101AA0006F5F7F4F83E192E00E945B10BE0180E098
:101AB00092E00E945B10B80181E092E00E945B100E
:101AC00082E092E00E944D10C298C19AC9E0D0E035
:101AD000C7010E947C102197D9F7C29A60E370E198
:101AE00083E090E0DF91CF911F910F91FF90EF90F5
:101AF0000C945B102F923F924F925F926F927F9265
:101B00008F929F92AF92BF92CF92DF92EF92FF920D
:101B10000F931F93CF93DF93CDB7DEB760970FB6C8
:101B2000F894DEBF0FBECDBF8C018CE4282E332489
:101B30003A94822F90E0A0E0B0E089839A83AB834F
:101B4000BC83CA01A0E0B0E08D839E83AF83B887D9
:101B5000862F90E0A0E0B0E089879A87AB87BC87AA
:101B600069817A818B819C810E94FE156B017C01C9
:101B7000B101032C000C880B990B0E94FE152BED74
:101B80003FE049E450E40E94C91620E030E044E31D
:101B900053E40E945B154B015C010E945A179B01A4
:101BA000AC016D817E818F8198852D873E874F871F
:101BB000588B0E94FC152B013C012D853E854F85DD
:101BC0005889C701B6010E94C9169B01AC01C30127
:101BD000B2010E94EA140E9436172B013C01C50194
:101BE000B4010E9456159B01AC0169857A858B85ED
:101BF0009C852D873E874F87588B0E94FE154B0191
:101C00005C012D853E854F855889C701B6010E942C
:101C1000C9169B01AC01C501B4010E94EA140E94DF
:101C200036176B017C01C301B2010E94CD154B0137
:101C30005C01C701B6010E94CD15A401C8010E9434
:101C4000E60C9FEF291A390AA4EB2A16310409F091
:101C500087CF60960FB6F894DEBF0FBECDBFDF9181
:101C6000CF911F910F91FF90EF90DF90CF90BF9099
:101C7000AF909F908F907F906F905F904F903F902C
:101C80002F9008959F92AF92BF92CF92DF92EF92E2
:101C9000FF920F931F93CF93DF93CDB7DEB72997B2
:101CA0000FB6F894DEBF0FBECDBF6C016C835E83B0
:101CB0004D832F8319870887C6010E94E60C3C815B
:101CC0002F814D815E8188859985321304C0481724
:101CD000590709F44FC0231B2B83841B950B9A8350
:101CE000898330E028173907C0F4BE016B5F7F4F4E
:101CF000CE0104960E949304BE01685F7F4FCE011F
:101D000007960E949304BE016F5F7F4FCE0103963A
:101D10000E9493049924939401C0912C1C818F817B
:101D200090E0811B91091816190614F00FEF01C0FD
:101D300001E0ED80FE80888599858E159F0511F460
:101D40008FEF01C081E0A82E880FBB088F81181784
:101D500079F0EA0CFB1C992021F0412F50E06E2D08
:101D600002C0A701612FC6010E94E60C100FEECF42
:101D700080E001C082E029960FB6F894DEBF0FBE66
:101D8000CDBFDF91CF911F910F91FF90EF90DF902A
:101D9000CF90BF90AF909F900895AF92BF92CF9297
:101DA000DF92EF92FF920F931F93CF93DF936C011B
:101DB0005A01C22FE62EF12CB70180E192E00E9479
:101DC0005B10B50182E192E00E945B10D0E0BE01A1
:101DD0006150710981E192E00E945B10B80161508D
:101DE000710983E192E00E945B10B70180E092E00C
:101DF0000E945B10B80181E092E00E945B10C198E4
:101E000082E092E00E944D10C29800E010E0CE19EE
:101E1000DF090C171D0730F4C6010E947C100F5F0C
:101E20001F4FF7CFC29ADF91CF911F910F91FF9073
:101E3000EF90DF90CF90BF90AF9008958F929F92D8
:101E4000AF92BF92CF92DF92EF92FF920F931F93C8
:101E5000CF93DF936C017A01822EC62FD0E0BE01B2
:101E600080E192E00E945B10B70182E192E00E9463
:101E70005B10A82CB12CBE016A0D7B1D615071094D
:101E800081E192E00E945B10B801615071096E0D12
:101E90007F1D83E192E00E945B10BE0180E092E032
:101EA0000E945B10B70181E092E00E945B10C19834
:101EB00082E092E00E944D10AA0CBB1C8FEFC81A62
:101EC000D80AE12CF12CE016F106A9F0E601912CDC
:101ED000981459F0FE0131978081288190E0922B6F
:101EE0000E947C1093942296F3CF8FEFE81AF80AA1
:101EF000CA0CDB1CE8CFC29ADF91CF911F910F91E2
:101F0000FF90EF90DF90CF90BF90AF909F908F9019
:101F100008959F92AF92BF92CF92DF92EF92FF927D
:101F20000F931F93CF93DF93EC01962ED42E01E0F5
:101F300011E0D8018D919C910E945B0BF801819377
:101F400091938F01F1E005311F0799F780E394E841
:101F50000E942A0C80E394E80E942A0CFE01019062
:101F60000020E9F73197EC1BFD0B83E0EE0FFF1F1C
:101F70008A95E1F7F695E79528E730E02E1B3F0BB1
:101F800000E510E040E354E860E070E0CE010E941C
:101F9000F60B28E2A22EB12C3CE3C32E40EAE42E3D
:101FA000F12C0EE120EE37E04FEF5FEF692D88EE68
:101FB00090E00E941E0B9093120180931101DC01AE
:101FC0001D96ED91FC911E97099506E920E038EFEA
:101FD0004FEF5FEF6D2D8CEE90E00E941E0B909303
:101FE000140180931301DC011D96ED91FC911E9765
:101FF000DF91CF911F910F91FF90EF90DF90CF90E5
:10200000BF90AF909F9009940E947E138AE30E9434
:10201000841380E20E94841387EC0E9484130C9442
:1020200099131F93CF93DF931F92CDB7DEB7182F6D
:102030000E947E138AE30E948413812F0E948413DE
:102040000E947E138BE30E9484130E949213898363
:102050000E94991389810F90DF91CF911F9108956C
:1020600089E20E941110863F5CF08B305CF48BE2B9
:102070000E941110813F44F0863044F480E00895BE
:1020800083E0089584E0089581E0089582E0089552
:1020900083B7896683BF1CBE0895CF93C82FC298AB
:1020A000C198892F0E94A3138C2F0E94A313C19A59
:1020B000C29ACF9108951F93CF93DF9300D0CDB7ED
:1020C000DEB7182FC298C198892F6A8379830E943E
:1020D000A313812F0E94A313C19A7981872F0E9495
:1020E000A3136A81862F0E94A313C29A0F900F90A8
:1020F000DF91CF911F910895CF93C82F892F0E9410
:10210000A3138C2FCF910C94A3130E944810C09856
:1021100085E38A95F1F70000C09A95E39A95F1F767
:10212000000061E070E080E090E00E945B1085E3D9
:102130008A95F1F7000060E070E080E091E00E9495
:102140005B1060E070E081E091E00E945B1060E174
:1021500071E382E091E00E945B1060E072EE83E048
:1021600091E00E945B106DE970E080E191E00E94D7
:102170005B1062E270E081E191E00E945B1060E23E
:1021800071E080E091E00E945B109AE69A95F1F789
:1021900000C060E271E380E091E00E945B108FE399
:1021A00091E00197F1F700C0000060E071E081E08C
:1021B00090E00E945B1060E070E082E090E00E949E
:1021C0005B1060E372E183E090E00E945B1060E0EE
:1021D00070E086E090E00E945B1061E071E087E0D3
:1021E00090E00E945B1068E078E088E090E00E9458
:1021F0005B1060E070E089E090E00E945B1060E0BE
:1022000070E08BE090E00E945B1060E070E08CE09A
:1022100090E00E945B1068E170E08DE090E00E9429
:102220005B1060E070E082E190E00E945B1060E093
:1022300070E083E190E00E945B1060E070E088E174
:1022400090E00E945B1060E070E089E190E00E9405
:102250005B1060E070E083E092E00E945B1060E061
:1022600070E084E092E00E945B1060E070E080E14A
:1022700092E00E945B106FEE70E081E192E00E94BC
:102280005B1060E070E082E192E00E945B106FE31F
:1022900071E083E192E00E945B1060E070E084E115
:1022A00092E00E945B1060E070E085E192E00E94A5
:1022B0005B1060E070E086E192E00E945B1060E0FD
:1022C00070E087E192E00E945B1063E473E580E0D8
:1022D00093E00E945B1061E270E181E093E00E9474
:1022E0005B1063E070E082E093E00E945B1061E1CC
:1022F00070E083E093E00E945B106AE075E084E0A8
:1023000093E00E945B1062E473E485E093E00E9436
:102310005B1060E071E186E093E00E945B1063E097
:1023200070E087E093E00E945B1061E072E188E07A
:1023300093E00E945B106AE075E089E093E00E9400
:102340005B1067E270E480E094E00E945B1060E064
:1023500070E081E094E00E945B1060E070E082E059
:1023600094E00E945B106FE371E083E094E00E94D0
:102370005B1060E070E084E094E00E945B1060E03D
:1023800070E080E092E00E945B1060E070E081E02D
:1023900092E00E945B1060E271E780E091E00E94B1
:1023A0005B1063E071E087E090E00E945B1095E3D2
:1023B0009A95F1F7000063E171E087E090E00E94F8
:1023C0005B108AE68A95F1F700C008951F920F927C
:1023D0000FB60F9211248F9381E08093F4008F91B8
:1023E0000F900FBE0F901F9018958C9A949A85B7F6
:1023F000826085BF85B78E7F85BF8BB780648BBFBA
:1024000078940895CF93C29A94984AE04A95F1F748
:1024100000C00E94A3135AE05A95F1F700C080E073
:102420000E94A313C82F80E00E94A3132C2F30E03A
:10243000322F2227A901480F511DCA01949A24E086
:10244000969587952A95E1F7CF910895BF92CF92FF
:10245000DF92EF92FF920F931F93CF93DF93CDB74D
:10246000DEB764970FB6F894DEBF0FBECDBFB82EAF
:102470008E010F5F1F4F6E0185E1C80ED11C7801E0
:102480008B2D0E940212D7018D939D937D01AC1577
:10249000BD05B1F780E090E00196F8019C01D801FC
:1024A0004D915C911197628173816417750720F4D7
:1024B0006D937C93538342832F5F3F4F32962A3034
:1024C000310569F70E5F1F4F8930910529F72B857C
:1024D0003C8589859A85820F931F9695879564968A
:1024E0000FB6F894DEBF0FBECDBFDF91CF911F9125
:1024F0000F91FF90EF90DF90CF90BF900895EF92F3
:10250000FF920F931F93CF93DF937C018B0180ED9C
:102510000E942612EC0180E90E942612C436D105E1
:1025200058F08436910540F0F701D183C083F8015B
:102530009183808380E001C081E0DF91CF911F9182
:102540000F91FF90EF900895EF92FF920F931F93DA
:10255000CF93DF93CDB7DEB728970FB6F894DEBFE1
:102560000FBECDBF7C018B01BE016B5F7F4FCE01E3
:1025700007960E947F1281114AC0BE016F5F7F4F94
:10258000CE0103960E947F12811141C04B815C8174
:102590006F8178856417750728F0CA01C29668179D
:1025A000790740F04617570788F1CB01C2964817C4
:1025B000590760F529813A818D819E8182179307A1
:1025C00028F0F901F2968E179F0740F02817390777
:1025D000E8F0FC01F2962E173F07C0F4460F571F94
:1025E0005695479560E070E0F70140835183628320
:1025F0007383820F931F96958795A0E0B0E0F80152
:1026000080839183A283B38380E001C081E0289618
:102610000FB6F894DEBF0FBECDBFDF91CF911F91F3
:102620000F91FF90EF900895CF92DF92EF92FF927B
:10263000CF93DF93C5EFD0E02B813C814D815E814C
:10264000A0EFB0E00E94CF14605C704B8F4F9F4FA3
:102650002CE6C22E27E0D22EE12CF12CA701960108
:102660000E94A71428832F81388549855A85A0E4C4
:10267000B1E00E94CF14715481099109A70196011C
:102680000E94A7143A832983DF91CF91FF90EF90A6
:10269000DF90CF900895CF93DF931F92CDB7DEB731
:1026A0006CEF70E088EF90E00E94A412811106C0E8
:1026B000839BFECF89830E94141389810F90DF9141
:1026C000CF910895CF93DF931F92CDB7DEB76CEF14
:1026D00070E088EF90E00E94A412811104C0898309
:1026E0000E94141389810F90DF91CF91089514BA3D
:1026F00083E085BB11B88CE080B9089584EA86BF79
:1027000006B607FEFDCF089583B984E886BF06B6F6
:1027100007FEFDCF089584EC86BF06B607FEFDCF09
:1027200083B1089584E886BF06B607FEFDCF83B166
:10273000089584E986BF08958FEF87BB18BA80E5B6
:102740008DB91EB808958FB9779BFECF8FB10895CC
:10275000CF92DF92EF92FF920F931F93CF93DF936D
:10276000D82FC92F6B018FEF9FEF0E942A0CED2EFF
:10277000FC2EC0E00EE110E02EE140E050E06C2FB6
:10278000F701819191917F010E94770CC25EC03F59
:1027900089F7C601DF91CF911F910F91FF90EF90C4
:1027A000DF90CF900C94E80ACF93DF932091F5004F
:1027B0002451E091F600F091F7003297EC0140E0EF
:1027C00050E030E089919991DA015E96861797077B
:1027D00049F02417350734F0A217B3071CF0EF3186
:1027E000F10528F0AD01A03FB10561F7CB01DF9104
:1027F000CF910895AF92BF92CF92EF92FF920F9335
:102800001F93CF93DF93CDB7DEB760970FB6F894E1
:10281000DEBF0FBECDBF80E1EAE6F0E0DE0111963B
:1028200001900D928A95E1F78EE1A82EB12C98E2E5
:10283000C92E2DE1E22EFF24F39405E020E038EFCD
:1028400040E050E066E08FEE90E00E941E0B8C01AD
:10285000BC01CE0101960E94A813E12CF12CC80105
:102860000E94600B811115C0B701CE0101960E9434
:10287000D4137C010E9462134091F6005091F7003E
:10288000425051096091F5006451C7010E94E60C65
:10289000E6CFC8010E945B1860960FB6F894DEBFC1
:1028A0000FBECDBFDF91CF911F910F91FF90EF90A1
:1028B000CF90BF90AF9008958FE891E00197F1F726
:1028C00000C000000E9477130E9404100E94F511BE
:1028D0000E949C130E9485100E9497060E940E057C
:1028E0008091F4008823E1F30E948905F9CFDB0190
:1028F0008F939F930E94CF14BF91AF91A29F800DA1
:10290000911DA39F900DB29F900D11240895991BC6
:1029100079E004C0991F961708F0961B881F7A95D6
:10292000C9F780950895AA1BBB1B51E107C0AA1FD8
:10293000BB1FA617B70710F0A61BB70B881F991F60
:102940005A95A9F780959095BC01CD010895A1E213
:102950001A2EAA1BBB1BFD010DC0AA1FBB1FEE1F19
:10296000FF1FA217B307E407F50720F0A21BB30B64
:10297000E40BF50B661F771F881F991F1A9469F7E0
:1029800060957095809590959B01AC01BD01CF013C
:102990000895EE0FFF1F0590F491E02D09940E9419
:1029A000DA14A59F900DB49F900DA49F800D911DEA
:1029B00011240895A29FB001B39FC001A39F700D81
:1029C000811D1124911DB29F700D811D1124911D37
:1029D00008955058BB27AA270E9401150C947B1616
:1029E0000E94421638F00E94491620F039F49F3FA9
:1029F00019F426F40C943F160EF4E095E7FB0C94C2
:102A00003916E92F0E94A01658F3BA176207730708
:102A10008407950720F079F4A6F50C94C2160EF4FD
:102A2000E0950B2EBA2FA02D0B01B90190010C01DE
:102A3000CA01A0011124FF27591B99F0593F50F4F6
:102A4000503E68F11A16F040A22F232F342F44274E
:102A5000585FF3CF469537952795A795F040539546
:102A6000C9F77EF41F16BA0B620B730B840BBAF016
:102A70009150A1F0FF0FBB1F661F771F881FC2F781
:102A80000EC0BA0F621F731F841F48F48795779595
:102A90006795B795F7959E3F08F0B0CF9395880F4F
:102AA00008F09927EE0F9795879508950E94521682
:102AB000E3950C948C160E946F150C947B160E9463
:102AC000491658F00E94421640F029F45F3F29F061
:102AD0000C94391651110C94C3160C943F160E9495
:102AE000A01668F39923B1F3552391F3951B550B69
:102AF000BB27AA2762177307840738F09F5F5F4FD1
:102B0000220F331F441FAA1FA9F335D00E2E3AF00F
:102B1000E0E832D091505040E695001CCAF72BD027
:102B2000FE2F29D0660F771F881FBB1F2617370778
:102B30004807AB07B0E809F0BB0B802DBF01FF27AA
:102B400093585F4F3AF09E3F510578F00C94391638
:102B50000C94C3165F3FE4F3983ED4F386957795C3
:102B60006795B795F7959F5FC9F7880F911D969563
:102B7000879597F90895E1E0660F771F881FBB1FBF
:102B8000621773078407BA0720F0621B730B840B6C
:102B9000BA0BEE1F88F7E09508950E94A81688F0FA
:102BA0009F5798F0B92F9927B751B0F0E1F0660F11
:102BB000771F881F991F1AF0BA95C9F714C0B13052
:102BC00091F00E94C216B1E008950C94C216672FCE
:102BD000782F8827B85F39F0B93FCCF38695779581
:102BE0006795B395D9F73EF490958095709561956A
:102BF0007F4F8F4F9F4F0895E89409C097FB3EF495
:102C000090958095709561957F4F8F4F9F4F992339
:102C1000A9F0F92F96E9BB279395F69587957795B7
:102C20006795B795F111F8CFFAF4BB0F11F460FF77
:102C30001BC06F5F7F4F8F4F9F4F16C0882311F0CF
:102C400096E911C0772321F09EE8872F762F05C0E3
:102C5000662371F096E8862F70E060E02AF09A957E
:102C6000660F771F881FDAF7880F9695879597F973
:102C7000089597F99F6780E870E060E008959FEFFE
:102C800080EC089500240A94161617061806090603
:102C9000089500240A9412161306140605060895D2
:102CA0000C943F160E94A816D8F3E894E0E0BB27E6
:102CB0009F57F0F02AED3FE049EC06C0EE0FBB0F46
:102CC000661F771F881F28F0B23A620773078407D0
:102CD00028F0B25A620B730B840BE3959A9572F746
:102CE000803830F49A95BB0F661F771F881FD2F784
:102CF00090480C947F17092E0394000C11F488233C
:102D000052F0BB0F40F4BF2B11F460FF04C06F5FA3
:102D10007F4F8F4F9F4F0895EF93E0FF07C0A2EAC8
:102D20002AED3FE049EC5FEB0E9401150E947B1603
:102D30000F90039401FC9058E2E6F0E00C948B179E
:102D400057FD9058440F551F59F05F3F71F047955C
:102D5000880F97FB991F61F09F3F79F08795089541
:102D6000121613061406551FF2CF4695F1DF08C060
:102D7000161617061806991FF1CF8695710561057D
:102D800008940895E894BB2766277727CB0197F925
:102D900008950E94DC160C947B160E94421638F0AF
:102DA0000E94491620F0952311F00C9439160C94CA
:102DB0003F1611240C94C3160E94A01670F3959F21
:102DC000C1F3950F50E0551F629FF001729FBB2722
:102DD000F00DB11D639FAA27F00DB11DAA1F649FBE
:102DE0006627B00DA11D661F829F2227B00DA11D71
:102DF000621F739FB00DA11D621F839FA00D611DF7
:102E0000221F749F3327A00D611D231F849F600D17
:102E1000211D822F762F6A2F11249F5750409AF040
:102E2000F1F088234AF0EE0FFF1FBB1F661F771FCC
:102E3000881F91505040A9F79E3F510580F00C9497
:102E400039160C94C3165F3FE4F3983ED4F386958D
:102E500077956795B795F795E7959F5FC1F7FE2B37
:102E6000880F911D9695879597F908950E94A81649
:102E7000E8F09E37E8F09639B8F49E3848F4672FAA
:102E8000782F8827985FF9CF8695779567959395E2
:102E90009539D0F3B62FB1706B0F711D811D20F4E1
:102EA00087957795679593950C9462170C947D1789
:102EB0000C94C3169F930E9452160F9007FCEE5F6E
:102EC0000C948C16882371F4772321F09850872B6B
:102ED000762F07C0662311F499270DC09051862BD9
:102EE00070E060E02AF09A95660F771F881FDAF786
:102EF000880F9695879597F908959F3F31F09150E7
:102F000020F4879577956795B795880F911D9695CD
:102F1000879597F908959F938F937F936F93FF936E
:102F2000EF939B01AC010E94C916EF91FF910E94A3
:102F30009F172F913F914F915F910C94C916DF938A
:102F4000CF931F930F93FF92EF92DF927B018C013F
:102F5000689406C0DA2EEF010E94DC16FE01E894A8
:102F6000A5912591359145915591A6F3EF010E94C8
:102F70000115FE019701A801DA9469F7DF90EF903F
:102F8000FF900F911F91CF91DF910895CF93DF9321
:102F90008230910510F482E090E0E0911701F09109
:102FA000180120E030E0C0E0D0E0309711F140811E
:102FB000518148175907C0F04817590761F48281B9
:102FC0009381209719F09B838A832BC090931801DB
:102FD0008093170126C02115310519F042175307B8
:102FE00018F49A01BE01DF01EF010280F381E02DA8
:102FF000DCCF2115310509F1281B390B24303105AF
:1030000090F412968D919C9113976115710521F0A2
:10301000FB019383828304C090931801809317016E
:10302000FD01329644C0FD01E20FF31F819391939D
:10303000225031092D933C933AC0209115013091D3
:103040001601232B41F420916200309163003093EC
:103050001601209315012091600030916100211527
:10306000310541F42DB73EB74091640050916500A1
:10307000241B350BE0911501F0911601E217F307BF
:10308000A0F42E1B3F0B2817390778F0AC014E5FD8
:103090005F4F2417350748F04E0F5F1F50931601FE
:1030A000409315018193919302C0E0E0F0E0CF01DD
:1030B000DF91CF9108950F931F93CF93DF930097E4
:1030C00009F48CC0FC01329713821282009117011F
:1030D000109118010115110581F420813181820FB1
:1030E000931F20911501309116012817390779F5A2
:1030F000F0931601E093150171C0D80140E050E053
:10310000AE17BF0750F412962D913C911397AD0165
:103110002115310509F1D901F3CF9D01DA0133837E
:10312000228360817181860F971F8217930769F44C
:10313000EC0128813981260F371F2E5F3F4F3183E5
:1031400020838A819B8193838283452B29F4F0938A
:103150001801E093170142C01396FC93EE93129767
:10316000ED01499159919E01240F351FE217F30794
:1031700071F480819181840F951F029611969C9322
:103180008E938281938113969C938E931297E0E0A5
:10319000F0E0D80112968D919C911397009719F049
:1031A000F8018C01F6CF8D919C9198012E5F3F4FD5
:1031B000820F931F209115013091160128173907AE
:1031C00069F4309729F4109218011092170102C087
:1031D000138212821093160100931501DF91CF9193
:1031E0001F910F9108958F929F92AF92BF92CF92AD
:1031F000DF92EF92FF92CF93DF93EC0168817981A8
:103200008A819B81611571058105910521F464E234
:1032100079ED8BE597E02DE133EF41E050E00E943E
:10322000221A49015A019B01AC01A7EAB1E40E94AC
:10323000CF146B017C01ACEEB4EFA50194010E94A8
:10324000441ADC01CB018C0D9D1DAE1DBF1DB7FFC7
:1032500003C00197A109B04888839983AA83BB83DF
:103260009F77DF91CF91FF90EF90DF90CF90BF904D
:10327000AF909F908F9008950E94F318089586E66E
:1032800090E00E94F3180895A0E0B0E080936600FB
:1032900090936700A0936800B09369000895A0E040
:1032A000B0E0E5E5F9E10C944D1AEC01009721F44A
:1032B000CB010E94C617B8C0FC01E60FF71F9C01A6
:1032C00022503109E217F30708F4ACC0D9010D917F
:1032D0001C91119706171707B0F00530110508F477
:1032E0009FC0C80104978617970708F499C0025039
:1032F0001109061B170B019311936D937C93CF015A
:103300000E945B188DC05B01A01AB10A4C01800EAF
:10331000911EA0911701B091180140E050E0E12CFE
:10332000F12C109709F44AC0A815B905D1F56D9094
:103330007C901197630182E0C80ED11CCA14DB0493
:1033400080F1A3014A195B096A0182E0C80ED11C11
:103350001296BC9012971396AC91B5E0CB16D1049F
:1033600040F0B282A38351834083D9016D937C9353
:103370000AC00E5F1F4FC301800F911FF901918397
:103380008083EB2DFA2FE114F10431F0D70113966D
:10339000FC93EE93129744C0F0931801E093170149
:1033A0003FC08D919C9111974817590708F4AC01C3
:1033B0007D0112960D90BC91A02DB3CF8091150187
:1033C0009091160188159905E1F446175707C8F43E
:1033D0008091600090916100009741F48DB79EB795
:1033E0004091640050916500841B950BE817F90724
:1033F000C8F4F0931601E0931501F901718360831D
:103400000FC0CB010E94C6177C01009759F0A8019C
:10341000BE010E94191ACE010E945B18C70104C0A8
:10342000CE0102C080E090E0CDB7DEB7EEE00C94B4
:10343000691AFB01DC0102C001900D92415050401D
:10344000D8F70895052E97FB1EF400940E94391AB0
:1034500057FD07D00E94A71407FC03D04EF40C942C
:10346000391A50954095309521953F4F4F4F5F4FFA
:10347000089590958095709561957F4F8F4F9F4FE0
:103480000895B7FF0C94CF140E94CF14821B930BA6
:1034900008952F923F924F925F926F927F928F92F8
:1034A0009F92AF92BF92CF92DF92EF92FF920F93D3
:1034B0001F93CF93DF93CDB7DEB7CA1BDB0B0FB6DD
:1034C000F894DEBF0FBECDBF09942A88398848889A
:1034D0005F846E847D848C849B84AA84B984C88430
:1034E000DF80EE80FD800C811B81AA81B981CE0F27
:1034F000D11D0FB6F894DEBF0FBECDBFED0108950C
:04350000F894FFCF6D
:1035040000001D0120000100000000F8E0071F007A
:10351400E0FF08FC0000FFFF10845061696E740036
:103524004261636B004D656E7500446F20796F7561
:103534002077616E6E6120706C61792061676169CA
:103544006E3F00556E6B6E6F776E206F7074696F8F
:103554006E2E0050696E6720506F6E6700536E6167
:103564006B650047616D6573004170706C696361E0
:1035740074696F6E0057454C434F4D4521004761B8
:103584006D65204F76657200596573004E6F004576
:0435940078697400DE
:00000001FF
